{
  "contractName": "Horus",
  "abi": [
    {
      "inputs": [],
      "stateMutability": "nonpayable",
      "type": "constructor"
    },
    {
      "anonymous": false,
      "inputs": [
        {
          "indexed": true,
          "internalType": "address",
          "name": "owner",
          "type": "address"
        },
        {
          "indexed": true,
          "internalType": "address",
          "name": "spender",
          "type": "address"
        },
        {
          "indexed": false,
          "internalType": "uint256",
          "name": "value",
          "type": "uint256"
        }
      ],
      "name": "Approval",
      "type": "event"
    },
    {
      "anonymous": false,
      "inputs": [
        {
          "indexed": true,
          "internalType": "address",
          "name": "previousOwner",
          "type": "address"
        },
        {
          "indexed": true,
          "internalType": "address",
          "name": "newOwner",
          "type": "address"
        }
      ],
      "name": "OwnershipTransferred",
      "type": "event"
    },
    {
      "anonymous": false,
      "inputs": [
        {
          "indexed": true,
          "internalType": "address",
          "name": "from",
          "type": "address"
        },
        {
          "indexed": true,
          "internalType": "address",
          "name": "to",
          "type": "address"
        },
        {
          "indexed": false,
          "internalType": "uint256",
          "name": "value",
          "type": "uint256"
        }
      ],
      "name": "Transfer",
      "type": "event"
    },
    {
      "inputs": [
        {
          "internalType": "address",
          "name": "owner",
          "type": "address"
        },
        {
          "internalType": "address",
          "name": "spender",
          "type": "address"
        }
      ],
      "name": "allowance",
      "outputs": [
        {
          "internalType": "uint256",
          "name": "",
          "type": "uint256"
        }
      ],
      "stateMutability": "view",
      "type": "function"
    },
    {
      "inputs": [
        {
          "internalType": "address",
          "name": "spender",
          "type": "address"
        },
        {
          "internalType": "uint256",
          "name": "amount",
          "type": "uint256"
        }
      ],
      "name": "approve",
      "outputs": [
        {
          "internalType": "bool",
          "name": "",
          "type": "bool"
        }
      ],
      "stateMutability": "nonpayable",
      "type": "function"
    },
    {
      "inputs": [
        {
          "internalType": "address",
          "name": "account",
          "type": "address"
        }
      ],
      "name": "balanceOf",
      "outputs": [
        {
          "internalType": "uint256",
          "name": "",
          "type": "uint256"
        }
      ],
      "stateMutability": "view",
      "type": "function"
    },
    {
      "inputs": [],
      "name": "decimals",
      "outputs": [
        {
          "internalType": "uint8",
          "name": "",
          "type": "uint8"
        }
      ],
      "stateMutability": "view",
      "type": "function"
    },
    {
      "inputs": [
        {
          "internalType": "address",
          "name": "spender",
          "type": "address"
        },
        {
          "internalType": "uint256",
          "name": "subtractedValue",
          "type": "uint256"
        }
      ],
      "name": "decreaseAllowance",
      "outputs": [
        {
          "internalType": "bool",
          "name": "",
          "type": "bool"
        }
      ],
      "stateMutability": "nonpayable",
      "type": "function"
    },
    {
      "inputs": [
        {
          "internalType": "address",
          "name": "spender",
          "type": "address"
        },
        {
          "internalType": "uint256",
          "name": "addedValue",
          "type": "uint256"
        }
      ],
      "name": "increaseAllowance",
      "outputs": [
        {
          "internalType": "bool",
          "name": "",
          "type": "bool"
        }
      ],
      "stateMutability": "nonpayable",
      "type": "function"
    },
    {
      "inputs": [],
      "name": "name",
      "outputs": [
        {
          "internalType": "string",
          "name": "",
          "type": "string"
        }
      ],
      "stateMutability": "view",
      "type": "function"
    },
    {
      "inputs": [],
      "name": "owner",
      "outputs": [
        {
          "internalType": "address",
          "name": "",
          "type": "address"
        }
      ],
      "stateMutability": "view",
      "type": "function"
    },
    {
      "inputs": [],
      "name": "paymentToken",
      "outputs": [
        {
          "internalType": "address",
          "name": "",
          "type": "address"
        }
      ],
      "stateMutability": "view",
      "type": "function"
    },
    {
      "inputs": [],
      "name": "renounceOwnership",
      "outputs": [],
      "stateMutability": "nonpayable",
      "type": "function"
    },
    {
      "inputs": [],
      "name": "symbol",
      "outputs": [
        {
          "internalType": "string",
          "name": "",
          "type": "string"
        }
      ],
      "stateMutability": "view",
      "type": "function"
    },
    {
      "inputs": [],
      "name": "totalSupply",
      "outputs": [
        {
          "internalType": "uint256",
          "name": "",
          "type": "uint256"
        }
      ],
      "stateMutability": "view",
      "type": "function"
    },
    {
      "inputs": [
        {
          "internalType": "address",
          "name": "to",
          "type": "address"
        },
        {
          "internalType": "uint256",
          "name": "amount",
          "type": "uint256"
        }
      ],
      "name": "transfer",
      "outputs": [
        {
          "internalType": "bool",
          "name": "",
          "type": "bool"
        }
      ],
      "stateMutability": "nonpayable",
      "type": "function"
    },
    {
      "inputs": [
        {
          "internalType": "address",
          "name": "from",
          "type": "address"
        },
        {
          "internalType": "address",
          "name": "to",
          "type": "address"
        },
        {
          "internalType": "uint256",
          "name": "amount",
          "type": "uint256"
        }
      ],
      "name": "transferFrom",
      "outputs": [
        {
          "internalType": "bool",
          "name": "",
          "type": "bool"
        }
      ],
      "stateMutability": "nonpayable",
      "type": "function"
    },
    {
      "inputs": [
        {
          "internalType": "address",
          "name": "newOwner",
          "type": "address"
        }
      ],
      "name": "transferOwnership",
      "outputs": [],
      "stateMutability": "nonpayable",
      "type": "function"
    },
    {
      "inputs": [
        {
          "internalType": "address",
          "name": "account",
          "type": "address"
        },
        {
          "internalType": "uint256",
          "name": "amount",
          "type": "uint256"
        }
      ],
      "name": "mint",
      "outputs": [],
      "stateMutability": "nonpayable",
      "type": "function"
    },
    {
      "inputs": [
        {
          "internalType": "address",
          "name": "",
          "type": "address"
        },
        {
          "internalType": "uint256",
          "name": "amount",
          "type": "uint256"
        }
      ],
      "name": "burn",
      "outputs": [],
      "stateMutability": "nonpayable",
      "type": "function"
    },
    {
      "inputs": [
        {
          "internalType": "uint256",
          "name": "idToken",
          "type": "uint256"
        }
      ],
      "name": "getRewards",
      "outputs": [],
      "stateMutability": "nonpayable",
      "type": "function"
    },
    {
      "inputs": [
        {
          "internalType": "uint256",
          "name": "idToken",
          "type": "uint256"
        }
      ],
      "name": "deposit",
      "outputs": [],
      "stateMutability": "payable",
      "type": "function"
    },
    {
      "inputs": [
        {
          "internalType": "uint256",
          "name": "idToken",
          "type": "uint256"
        }
      ],
      "name": "retrive",
      "outputs": [],
      "stateMutability": "payable",
      "type": "function"
    },
    {
      "inputs": [
        {
          "internalType": "uint256",
          "name": "idToken",
          "type": "uint256"
        }
      ],
      "name": "exit",
      "outputs": [],
      "stateMutability": "payable",
      "type": "function"
    },
    {
      "inputs": [
        {
          "internalType": "address",
          "name": "spender",
          "type": "address"
        },
        {
          "internalType": "uint256",
          "name": "amount",
          "type": "uint256"
        }
      ],
      "name": "approveAndCall",
      "outputs": [],
      "stateMutability": "nonpayable",
      "type": "function"
    }
  ],
  "bytecode": "0x60806040523480156200001157600080fd5b506040518060400160405280600581526020017f486f7275730000000000000000000000000000000000000000000000000000008152506040518060400160405280600381526020017f4852530000000000000000000000000000000000000000000000000000000000815250816003908051906020019062000096929190620001a6565b508060049080519060200190620000af929190620001a6565b505050620000d2620000c6620000d860201b60201c565b620000e060201b60201c565b620002ba565b600033905090565b6000600560009054906101000a900473ffffffffffffffffffffffffffffffffffffffff16905081600560006101000a81548173ffffffffffffffffffffffffffffffffffffffff021916908373ffffffffffffffffffffffffffffffffffffffff1602179055508173ffffffffffffffffffffffffffffffffffffffff168173ffffffffffffffffffffffffffffffffffffffff167f8be0079c531659141344cd1fd0a4f28419497f9722a3daafe3b4186f6b6457e060405160405180910390a35050565b828054620001b49062000285565b90600052602060002090601f016020900481019282620001d8576000855562000224565b82601f10620001f357805160ff191683800117855562000224565b8280016001018555821562000224579182015b828111156200022357825182559160200191906001019062000206565b5b50905062000233919062000237565b5090565b5b808211156200025257600081600090555060010162000238565b5090565b7f4e487b7100000000000000000000000000000000000000000000000000000000600052602260045260246000fd5b600060028204905060018216806200029e57607f821691505b602082108103620002b457620002b362000256565b5b50919050565b61229080620002ca6000396000f3fe6080604052600436106101355760003560e01c80637f8661a1116100ab578063a457c2d71161006f578063a457c2d7146103fa578063a9059cbb14610437578063b6b55f2514610474578063c0d8012c14610490578063dd62ed3e146104b9578063f2fde38b146104f657610135565b80637f8661a1146103435780638da5cb5b1461035f57806395d89b411461038a5780639dc29fac146103b55780639e803801146103de57610135565b8063313ce567116100fd578063313ce567146102355780633177029f14610260578063395093511461028957806340c10f19146102c657806370a08231146102ef578063715018a61461032c57610135565b806306fdde031461013a578063095ea7b31461016557806318160ddd146101a257806323b872dd146101cd5780633013ce291461020a575b600080fd5b34801561014657600080fd5b5061014f61051f565b60405161015c9190611766565b60405180910390f35b34801561017157600080fd5b5061018c60048036038101906101879190611821565b6105b1565b604051610199919061187c565b60405180910390f35b3480156101ae57600080fd5b506101b76105d4565b6040516101c491906118a6565b60405180910390f35b3480156101d957600080fd5b506101f460048036038101906101ef91906118c1565b6105de565b604051610201919061187c565b60405180910390f35b34801561021657600080fd5b5061021f61060d565b60405161022c9190611923565b60405180910390f35b34801561024157600080fd5b5061024a610633565b604051610257919061195a565b60405180910390f35b34801561026c57600080fd5b5061028760048036038101906102829190611821565b61063c565b005b34801561029557600080fd5b506102b060048036038101906102ab9190611821565b6106a6565b6040516102bd919061187c565b60405180910390f35b3480156102d257600080fd5b506102ed60048036038101906102e89190611821565b6106dd565b005b3480156102fb57600080fd5b5061031660048036038101906103119190611975565b6106eb565b60405161032391906118a6565b60405180910390f35b34801561033857600080fd5b50610341610733565b005b61035d600480360381019061035891906119a2565b6107bb565b005b34801561036b57600080fd5b5061037461084c565b6040516103819190611923565b60405180910390f35b34801561039657600080fd5b5061039f610876565b6040516103ac9190611766565b60405180910390f35b3480156103c157600080fd5b506103dc60048036038101906103d79190611821565b610908565b005b6103f860048036038101906103f391906119a2565b610916565b005b34801561040657600080fd5b50610421600480360381019061041c9190611821565b6109ff565b60405161042e919061187c565b60405180910390f35b34801561044357600080fd5b5061045e60048036038101906104599190611821565b610a76565b60405161046b919061187c565b60405180910390f35b61048e600480360381019061048991906119a2565b610a99565b005b34801561049c57600080fd5b506104b760048036038101906104b291906119a2565b610b78565b005b3480156104c557600080fd5b506104e060048036038101906104db91906119cf565b610c6e565b6040516104ed91906118a6565b60405180910390f35b34801561050257600080fd5b5061051d60048036038101906105189190611975565b610cf5565b005b60606003805461052e90611a3e565b80601f016020809104026020016040519081016040528092919081815260200182805461055a90611a3e565b80156105a75780601f1061057c576101008083540402835291602001916105a7565b820191906000526020600020905b81548152906001019060200180831161058a57829003601f168201915b5050505050905090565b6000806105bc610dec565b90506105c9818585610df4565b600191505092915050565b6000600254905090565b6000806105e9610dec565b90506105f6858285610fbd565b610601858585611049565b60019150509392505050565b600760009054906101000a900473ffffffffffffffffffffffffffffffffffffffff1681565b60006012905090565b6001151561064a83836105b1565b15151461068c576040517f08c379a000000000000000000000000000000000000000000000000000000000815260040161068390611abb565b60405180910390fd5b6106973083836105de565b506106a282826112c8565b5050565b6000806106b1610dec565b90506106d28185856106c38589610c6e565b6106cd9190611b0a565b610df4565b600191505092915050565b6106e782826112c8565b5050565b60008060008373ffffffffffffffffffffffffffffffffffffffff1673ffffffffffffffffffffffffffffffffffffffff168152602001908152602001600020549050919050565b61073b610dec565b73ffffffffffffffffffffffffffffffffffffffff1661075961084c565b73ffffffffffffffffffffffffffffffffffffffff16146107af576040517f08c379a00000000000000000000000000000000000000000000000000000000081526004016107a690611bac565b60405180910390fd5b6107b96000611427565b565b6107c3610dec565b73ffffffffffffffffffffffffffffffffffffffff166107e161084c565b73ffffffffffffffffffffffffffffffffffffffff1614610837576040517f08c379a000000000000000000000000000000000000000000000000000000000815260040161082e90611bac565b60405180910390fd5b61084081610b78565b61084981610916565b50565b6000600560009054906101000a900473ffffffffffffffffffffffffffffffffffffffff16905090565b60606004805461088590611a3e565b80601f01602080910402602001604051908101604052809291908181526020018280546108b190611a3e565b80156108fe5780601f106108d3576101008083540402835291602001916108fe565b820191906000526020600020905b8154815290600101906020018083116108e157829003601f168201915b5050505050905090565b61091233826114ed565b5050565b61091e610dec565b73ffffffffffffffffffffffffffffffffffffffff1661093c61084c565b73ffffffffffffffffffffffffffffffffffffffff1614610992576040517f08c379a000000000000000000000000000000000000000000000000000000000815260040161098990611bac565b60405180910390fd5b61099b81610b78565b6000600660003373ffffffffffffffffffffffffffffffffffffffff1673ffffffffffffffffffffffffffffffffffffffff1681526020019081526020016000206000838152602001908152602001600020819055506109fc303383611049565b50565b600080610a0a610dec565b90506000610a188286610c6e565b905083811015610a5d576040517f08c379a0000000000000000000000000000000000000000000000000000000008152600401610a5490611c3e565b60405180910390fd5b610a6a8286868403610df4565b60019250505092915050565b600080610a81610dec565b9050610a8e818585611049565b600191505092915050565b610aa1610dec565b73ffffffffffffffffffffffffffffffffffffffff16610abf61084c565b73ffffffffffffffffffffffffffffffffffffffff1614610b15576040517f08c379a0000000000000000000000000000000000000000000000000000000008152600401610b0c90611bac565b60405180910390fd5b42600660003373ffffffffffffffffffffffffffffffffffffffff1673ffffffffffffffffffffffffffffffffffffffff168152602001908152602001600020600083815260200190815260200160002081905550610b75333083611049565b50565b610b80610dec565b73ffffffffffffffffffffffffffffffffffffffff16610b9e61084c565b73ffffffffffffffffffffffffffffffffffffffff1614610bf4576040517f08c379a0000000000000000000000000000000000000000000000000000000008152600401610beb90611bac565b60405180910390fd5b60006064600660003373ffffffffffffffffffffffffffffffffffffffff1673ffffffffffffffffffffffffffffffffffffffff16815260200190815260200160002060008481526020019081526020016000205442610c549190611c5e565b610c5e9190611cc1565b9050610c6a33826112c8565b5050565b6000600160008473ffffffffffffffffffffffffffffffffffffffff1673ffffffffffffffffffffffffffffffffffffffff16815260200190815260200160002060008373ffffffffffffffffffffffffffffffffffffffff1673ffffffffffffffffffffffffffffffffffffffff16815260200190815260200160002054905092915050565b610cfd610dec565b73ffffffffffffffffffffffffffffffffffffffff16610d1b61084c565b73ffffffffffffffffffffffffffffffffffffffff1614610d71576040517f08c379a0000000000000000000000000000000000000000000000000000000008152600401610d6890611bac565b60405180910390fd5b600073ffffffffffffffffffffffffffffffffffffffff168173ffffffffffffffffffffffffffffffffffffffff1603610de0576040517f08c379a0000000000000000000000000000000000000000000000000000000008152600401610dd790611d64565b60405180910390fd5b610de981611427565b50565b600033905090565b600073ffffffffffffffffffffffffffffffffffffffff168373ffffffffffffffffffffffffffffffffffffffff1603610e63576040517f08c379a0000000000000000000000000000000000000000000000000000000008152600401610e5a90611df6565b60405180910390fd5b600073ffffffffffffffffffffffffffffffffffffffff168273ffffffffffffffffffffffffffffffffffffffff1603610ed2576040517f08c379a0000000000000000000000000000000000000000000000000000000008152600401610ec990611e88565b60405180910390fd5b80600160008573ffffffffffffffffffffffffffffffffffffffff1673ffffffffffffffffffffffffffffffffffffffff16815260200190815260200160002060008473ffffffffffffffffffffffffffffffffffffffff1673ffffffffffffffffffffffffffffffffffffffff168152602001908152602001600020819055508173ffffffffffffffffffffffffffffffffffffffff168373ffffffffffffffffffffffffffffffffffffffff167f8c5be1e5ebec7d5bd14f71427d1e84f3dd0314c0f7b2291e5b200ac8c7c3b92583604051610fb091906118a6565b60405180910390a3505050565b6000610fc98484610c6e565b90507fffffffffffffffffffffffffffffffffffffffffffffffffffffffffffffffff81146110435781811015611035576040517f08c379a000000000000000000000000000000000000000000000000000000000815260040161102c90611ef4565b60405180910390fd5b6110428484848403610df4565b5b50505050565b600073ffffffffffffffffffffffffffffffffffffffff168373ffffffffffffffffffffffffffffffffffffffff16036110b8576040517f08c379a00000000000000000000000000000000000000000000000000000000081526004016110af90611f86565b60405180910390fd5b600073ffffffffffffffffffffffffffffffffffffffff168273ffffffffffffffffffffffffffffffffffffffff1603611127576040517f08c379a000000000000000000000000000000000000000000000000000000000815260040161111e90612018565b60405180910390fd5b6111328383836116c3565b60008060008573ffffffffffffffffffffffffffffffffffffffff1673ffffffffffffffffffffffffffffffffffffffff168152602001908152602001600020549050818110156111b8576040517f08c379a00000000000000000000000000000000000000000000000000000000081526004016111af906120aa565b60405180910390fd5b8181036000808673ffffffffffffffffffffffffffffffffffffffff1673ffffffffffffffffffffffffffffffffffffffff16815260200190815260200160002081905550816000808573ffffffffffffffffffffffffffffffffffffffff1673ffffffffffffffffffffffffffffffffffffffff168152602001908152602001600020600082825461124b9190611b0a565b925050819055508273ffffffffffffffffffffffffffffffffffffffff168473ffffffffffffffffffffffffffffffffffffffff167fddf252ad1be2c89b69c2b068fc378daa952ba7f163c4a11628f55a4df523b3ef846040516112af91906118a6565b60405180910390a36112c28484846116c8565b50505050565b600073ffffffffffffffffffffffffffffffffffffffff168273ffffffffffffffffffffffffffffffffffffffff1603611337576040517f08c379a000000000000000000000000000000000000000000000000000000000815260040161132e90612116565b60405180910390fd5b611343600083836116c3565b80600260008282546113559190611b0a565b92505081905550806000808473ffffffffffffffffffffffffffffffffffffffff1673ffffffffffffffffffffffffffffffffffffffff16815260200190815260200160002060008282546113aa9190611b0a565b925050819055508173ffffffffffffffffffffffffffffffffffffffff16600073ffffffffffffffffffffffffffffffffffffffff167fddf252ad1be2c89b69c2b068fc378daa952ba7f163c4a11628f55a4df523b3ef8360405161140f91906118a6565b60405180910390a3611423600083836116c8565b5050565b6000600560009054906101000a900473ffffffffffffffffffffffffffffffffffffffff16905081600560006101000a81548173ffffffffffffffffffffffffffffffffffffffff021916908373ffffffffffffffffffffffffffffffffffffffff1602179055508173ffffffffffffffffffffffffffffffffffffffff168173ffffffffffffffffffffffffffffffffffffffff167f8be0079c531659141344cd1fd0a4f28419497f9722a3daafe3b4186f6b6457e060405160405180910390a35050565b600073ffffffffffffffffffffffffffffffffffffffff168273ffffffffffffffffffffffffffffffffffffffff160361155c576040517f08c379a0000000000000000000000000000000000000000000000000000000008152600401611553906121a8565b60405180910390fd5b611568826000836116c3565b60008060008473ffffffffffffffffffffffffffffffffffffffff1673ffffffffffffffffffffffffffffffffffffffff168152602001908152602001600020549050818110156115ee576040517f08c379a00000000000000000000000000000000000000000000000000000000081526004016115e59061223a565b60405180910390fd5b8181036000808573ffffffffffffffffffffffffffffffffffffffff1673ffffffffffffffffffffffffffffffffffffffff1681526020019081526020016000208190555081600260008282546116459190611c5e565b92505081905550600073ffffffffffffffffffffffffffffffffffffffff168373ffffffffffffffffffffffffffffffffffffffff167fddf252ad1be2c89b69c2b068fc378daa952ba7f163c4a11628f55a4df523b3ef846040516116aa91906118a6565b60405180910390a36116be836000846116c8565b505050565b505050565b505050565b600081519050919050565b600082825260208201905092915050565b60005b838110156117075780820151818401526020810190506116ec565b83811115611716576000848401525b50505050565b6000601f19601f8301169050919050565b6000611738826116cd565b61174281856116d8565b93506117528185602086016116e9565b61175b8161171c565b840191505092915050565b60006020820190508181036000830152611780818461172d565b905092915050565b600080fd5b600073ffffffffffffffffffffffffffffffffffffffff82169050919050565b60006117b88261178d565b9050919050565b6117c8816117ad565b81146117d357600080fd5b50565b6000813590506117e5816117bf565b92915050565b6000819050919050565b6117fe816117eb565b811461180957600080fd5b50565b60008135905061181b816117f5565b92915050565b6000806040838503121561183857611837611788565b5b6000611846858286016117d6565b92505060206118578582860161180c565b9150509250929050565b60008115159050919050565b61187681611861565b82525050565b6000602082019050611891600083018461186d565b92915050565b6118a0816117eb565b82525050565b60006020820190506118bb6000830184611897565b92915050565b6000806000606084860312156118da576118d9611788565b5b60006118e8868287016117d6565b93505060206118f9868287016117d6565b925050604061190a8682870161180c565b9150509250925092565b61191d816117ad565b82525050565b60006020820190506119386000830184611914565b92915050565b600060ff82169050919050565b6119548161193e565b82525050565b600060208201905061196f600083018461194b565b92915050565b60006020828403121561198b5761198a611788565b5b6000611999848285016117d6565b91505092915050565b6000602082840312156119b8576119b7611788565b5b60006119c68482850161180c565b91505092915050565b600080604083850312156119e6576119e5611788565b5b60006119f4858286016117d6565b9250506020611a05858286016117d6565b9150509250929050565b7f4e487b7100000000000000000000000000000000000000000000000000000000600052602260045260246000fd5b60006002820490506001821680611a5657607f821691505b602082108103611a6957611a68611a0f565b5b50919050565b7f5472616e7366657220646f6e277420617070726f766500000000000000000000600082015250565b6000611aa56016836116d8565b9150611ab082611a6f565b602082019050919050565b60006020820190508181036000830152611ad481611a98565b9050919050565b7f4e487b7100000000000000000000000000000000000000000000000000000000600052601160045260246000fd5b6000611b15826117eb565b9150611b20836117eb565b9250827fffffffffffffffffffffffffffffffffffffffffffffffffffffffffffffffff03821115611b5557611b54611adb565b5b828201905092915050565b7f4f776e61626c653a2063616c6c6572206973206e6f7420746865206f776e6572600082015250565b6000611b966020836116d8565b9150611ba182611b60565b602082019050919050565b60006020820190508181036000830152611bc581611b89565b9050919050565b7f45524332303a2064656372656173656420616c6c6f77616e63652062656c6f7760008201527f207a65726f000000000000000000000000000000000000000000000000000000602082015250565b6000611c286025836116d8565b9150611c3382611bcc565b604082019050919050565b60006020820190508181036000830152611c5781611c1b565b9050919050565b6000611c69826117eb565b9150611c74836117eb565b925082821015611c8757611c86611adb565b5b828203905092915050565b7f4e487b7100000000000000000000000000000000000000000000000000000000600052601260045260246000fd5b6000611ccc826117eb565b9150611cd7836117eb565b925082611ce757611ce6611c92565b5b828204905092915050565b7f4f776e61626c653a206e6577206f776e657220697320746865207a65726f206160008201527f6464726573730000000000000000000000000000000000000000000000000000602082015250565b6000611d4e6026836116d8565b9150611d5982611cf2565b604082019050919050565b60006020820190508181036000830152611d7d81611d41565b9050919050565b7f45524332303a20617070726f76652066726f6d20746865207a65726f2061646460008201527f7265737300000000000000000000000000000000000000000000000000000000602082015250565b6000611de06024836116d8565b9150611deb82611d84565b604082019050919050565b60006020820190508181036000830152611e0f81611dd3565b9050919050565b7f45524332303a20617070726f766520746f20746865207a65726f20616464726560008201527f7373000000000000000000000000000000000000000000000000000000000000602082015250565b6000611e726022836116d8565b9150611e7d82611e16565b604082019050919050565b60006020820190508181036000830152611ea181611e65565b9050919050565b7f45524332303a20696e73756666696369656e7420616c6c6f77616e6365000000600082015250565b6000611ede601d836116d8565b9150611ee982611ea8565b602082019050919050565b60006020820190508181036000830152611f0d81611ed1565b9050919050565b7f45524332303a207472616e736665722066726f6d20746865207a65726f20616460008201527f6472657373000000000000000000000000000000000000000000000000000000602082015250565b6000611f706025836116d8565b9150611f7b82611f14565b604082019050919050565b60006020820190508181036000830152611f9f81611f63565b9050919050565b7f45524332303a207472616e7366657220746f20746865207a65726f206164647260008201527f6573730000000000000000000000000000000000000000000000000000000000602082015250565b60006120026023836116d8565b915061200d82611fa6565b604082019050919050565b6000602082019050818103600083015261203181611ff5565b9050919050565b7f45524332303a207472616e7366657220616d6f756e742065786365656473206260008201527f616c616e63650000000000000000000000000000000000000000000000000000602082015250565b60006120946026836116d8565b915061209f82612038565b604082019050919050565b600060208201905081810360008301526120c381612087565b9050919050565b7f45524332303a206d696e7420746f20746865207a65726f206164647265737300600082015250565b6000612100601f836116d8565b915061210b826120ca565b602082019050919050565b6000602082019050818103600083015261212f816120f3565b9050919050565b7f45524332303a206275726e2066726f6d20746865207a65726f2061646472657360008201527f7300000000000000000000000000000000000000000000000000000000000000602082015250565b60006121926021836116d8565b915061219d82612136565b604082019050919050565b600060208201905081810360008301526121c181612185565b9050919050565b7f45524332303a206275726e20616d6f756e7420657863656564732062616c616e60008201527f6365000000000000000000000000000000000000000000000000000000000000602082015250565b60006122246022836116d8565b915061222f826121c8565b604082019050919050565b6000602082019050818103600083015261225381612217565b905091905056fea2646970667358221220928acf6ac3b98d514d22b4e256555dbf302663714b87317c98cb9d4145c2b2d564736f6c634300080e0033",
  "immutableReferences": {},
  "source": "// SPDX-License-Identifier: MIT\r\npragma solidity ^0.8.14;\r\n\r\nimport \"@openzeppelin/contracts/token/ERC721/IERC721.sol\";\r\nimport \"@openzeppelin/contracts/token/ERC20/ERC20.sol\";\r\nimport \"@openzeppelin/contracts/access/Ownable.sol\";\r\n\r\ncontract Horus is ERC20, Ownable{\r\n\r\n    mapping (address => mapping(uint256 => uint256)) lockTokens;\r\n    address public paymentToken;\r\n\r\n    constructor() ERC20(\"Horus\", \"HRS\"){}\r\n\r\n    function mint(address account,uint256 amount) public{\r\n        _mint(account,amount);\r\n    }\r\n\r\n\r\n    function burn(address , uint256 amount) public{\r\n        _burn(msg.sender,amount);\r\n    }\r\n\r\n    function getRewards(uint256 idToken) public onlyOwner{\r\n        uint256 rewards = (block.timestamp-lockTokens[msg.sender][idToken])/100;\r\n        _mint(msg.sender, rewards);\r\n    }\r\n    \r\n    function deposit(uint256 idToken) public payable onlyOwner{\r\n        lockTokens[msg.sender][idToken]=block.timestamp;\r\n        _transfer(msg.sender, address(this), idToken);\r\n    }\r\n\r\n    function retrive(uint256 idToken) public payable onlyOwner{\r\n        getRewards(idToken);\r\n        lockTokens[msg.sender][idToken]=0;\r\n        _transfer(address(this), msg.sender, idToken);\r\n    }\r\n\r\n    function exit(uint256 idToken) public payable onlyOwner{\r\n        getRewards(idToken);\r\n        retrive(idToken);\r\n    }\r\n\r\n    function approveAndCall(address spender, uint256 amount) public{\r\n        require(approve(spender, amount)==true, \"Transfer don't approve\");\r\n        transferFrom(address(this), spender, amount);\r\n        _mint(spender, amount);\r\n    }\r\n}",
  "sourcePath": "C:\\Users\\itrmi\\Documents\\WOLF\\Truffle\\contracts\\Horus.sol",
  "compiler": {
    "name": "solc",
    "version": "0.8.14+commit.80d49f37.Emscripten.clang"
  },
  "schemaVersion": "3.4.7",
  "updatedAt": "2022-06-14T05:28:00.251Z",
  "devdoc": {
    "kind": "dev",
    "methods": {
      "allowance(address,address)": {
        "details": "See {IERC20-allowance}."
      },
      "approve(address,uint256)": {
        "details": "See {IERC20-approve}. NOTE: If `amount` is the maximum `uint256`, the allowance is not updated on `transferFrom`. This is semantically equivalent to an infinite approval. Requirements: - `spender` cannot be the zero address."
      },
      "balanceOf(address)": {
        "details": "See {IERC20-balanceOf}."
      },
      "decimals()": {
        "details": "Returns the number of decimals used to get its user representation. For example, if `decimals` equals `2`, a balance of `505` tokens should be displayed to a user as `5.05` (`505 / 10 ** 2`). Tokens usually opt for a value of 18, imitating the relationship between Ether and Wei. This is the value {ERC20} uses, unless this function is overridden; NOTE: This information is only used for _display_ purposes: it in no way affects any of the arithmetic of the contract, including {IERC20-balanceOf} and {IERC20-transfer}."
      },
      "decreaseAllowance(address,uint256)": {
        "details": "Atomically decreases the allowance granted to `spender` by the caller. This is an alternative to {approve} that can be used as a mitigation for problems described in {IERC20-approve}. Emits an {Approval} event indicating the updated allowance. Requirements: - `spender` cannot be the zero address. - `spender` must have allowance for the caller of at least `subtractedValue`."
      },
      "increaseAllowance(address,uint256)": {
        "details": "Atomically increases the allowance granted to `spender` by the caller. This is an alternative to {approve} that can be used as a mitigation for problems described in {IERC20-approve}. Emits an {Approval} event indicating the updated allowance. Requirements: - `spender` cannot be the zero address."
      },
      "name()": {
        "details": "Returns the name of the token."
      },
      "owner()": {
        "details": "Returns the address of the current owner."
      },
      "renounceOwnership()": {
        "details": "Leaves the contract without owner. It will not be possible to call `onlyOwner` functions anymore. Can only be called by the current owner. NOTE: Renouncing ownership will leave the contract without an owner, thereby removing any functionality that is only available to the owner."
      },
      "symbol()": {
        "details": "Returns the symbol of the token, usually a shorter version of the name."
      },
      "totalSupply()": {
        "details": "See {IERC20-totalSupply}."
      },
      "transfer(address,uint256)": {
        "details": "See {IERC20-transfer}. Requirements: - `to` cannot be the zero address. - the caller must have a balance of at least `amount`."
      },
      "transferFrom(address,address,uint256)": {
        "details": "See {IERC20-transferFrom}. Emits an {Approval} event indicating the updated allowance. This is not required by the EIP. See the note at the beginning of {ERC20}. NOTE: Does not update the allowance if the current allowance is the maximum `uint256`. Requirements: - `from` and `to` cannot be the zero address. - `from` must have a balance of at least `amount`. - the caller must have allowance for ``from``'s tokens of at least `amount`."
      },
      "transferOwnership(address)": {
        "details": "Transfers ownership of the contract to a new account (`newOwner`). Can only be called by the current owner."
      }
    },
    "version": 1
  },
  "userdoc": {
    "kind": "user",
    "methods": {},
    "version": 1
  }
}