{
  "contractName": "Leno",
  "abi": [
    {
      "inputs": [
        {
          "internalType": "address",
          "name": "_paymentToken",
          "type": "address"
        }
      ],
      "stateMutability": "nonpayable",
      "type": "constructor"
    },
    {
      "anonymous": false,
      "inputs": [
        {
          "indexed": true,
          "internalType": "address",
          "name": "owner",
          "type": "address"
        },
        {
          "indexed": true,
          "internalType": "address",
          "name": "approved",
          "type": "address"
        },
        {
          "indexed": true,
          "internalType": "uint256",
          "name": "tokenId",
          "type": "uint256"
        }
      ],
      "name": "Approval",
      "type": "event"
    },
    {
      "anonymous": false,
      "inputs": [
        {
          "indexed": true,
          "internalType": "address",
          "name": "owner",
          "type": "address"
        },
        {
          "indexed": true,
          "internalType": "address",
          "name": "operator",
          "type": "address"
        },
        {
          "indexed": false,
          "internalType": "bool",
          "name": "approved",
          "type": "bool"
        }
      ],
      "name": "ApprovalForAll",
      "type": "event"
    },
    {
      "anonymous": false,
      "inputs": [
        {
          "indexed": true,
          "internalType": "address",
          "name": "previousOwner",
          "type": "address"
        },
        {
          "indexed": true,
          "internalType": "address",
          "name": "newOwner",
          "type": "address"
        }
      ],
      "name": "OwnershipTransferred",
      "type": "event"
    },
    {
      "anonymous": false,
      "inputs": [
        {
          "indexed": true,
          "internalType": "address",
          "name": "from",
          "type": "address"
        },
        {
          "indexed": true,
          "internalType": "address",
          "name": "to",
          "type": "address"
        },
        {
          "indexed": true,
          "internalType": "uint256",
          "name": "tokenId",
          "type": "uint256"
        }
      ],
      "name": "Transfer",
      "type": "event"
    },
    {
      "inputs": [
        {
          "internalType": "address",
          "name": "to",
          "type": "address"
        },
        {
          "internalType": "uint256",
          "name": "tokenId",
          "type": "uint256"
        }
      ],
      "name": "approve",
      "outputs": [],
      "stateMutability": "nonpayable",
      "type": "function"
    },
    {
      "inputs": [
        {
          "internalType": "address",
          "name": "owner",
          "type": "address"
        }
      ],
      "name": "balanceOf",
      "outputs": [
        {
          "internalType": "uint256",
          "name": "",
          "type": "uint256"
        }
      ],
      "stateMutability": "view",
      "type": "function"
    },
    {
      "inputs": [
        {
          "internalType": "uint256",
          "name": "tokenId",
          "type": "uint256"
        }
      ],
      "name": "getApproved",
      "outputs": [
        {
          "internalType": "address",
          "name": "",
          "type": "address"
        }
      ],
      "stateMutability": "view",
      "type": "function"
    },
    {
      "inputs": [
        {
          "internalType": "address",
          "name": "owner",
          "type": "address"
        },
        {
          "internalType": "address",
          "name": "operator",
          "type": "address"
        }
      ],
      "name": "isApprovedForAll",
      "outputs": [
        {
          "internalType": "bool",
          "name": "",
          "type": "bool"
        }
      ],
      "stateMutability": "view",
      "type": "function"
    },
    {
      "inputs": [],
      "name": "name",
      "outputs": [
        {
          "internalType": "string",
          "name": "",
          "type": "string"
        }
      ],
      "stateMutability": "view",
      "type": "function"
    },
    {
      "inputs": [],
      "name": "owner",
      "outputs": [
        {
          "internalType": "address",
          "name": "",
          "type": "address"
        }
      ],
      "stateMutability": "view",
      "type": "function"
    },
    {
      "inputs": [
        {
          "internalType": "uint256",
          "name": "tokenId",
          "type": "uint256"
        }
      ],
      "name": "ownerOf",
      "outputs": [
        {
          "internalType": "address",
          "name": "",
          "type": "address"
        }
      ],
      "stateMutability": "view",
      "type": "function"
    },
    {
      "inputs": [],
      "name": "paymentToken",
      "outputs": [
        {
          "internalType": "address",
          "name": "",
          "type": "address"
        }
      ],
      "stateMutability": "view",
      "type": "function"
    },
    {
      "inputs": [],
      "name": "renounceOwnership",
      "outputs": [],
      "stateMutability": "nonpayable",
      "type": "function"
    },
    {
      "inputs": [
        {
          "internalType": "address",
          "name": "from",
          "type": "address"
        },
        {
          "internalType": "address",
          "name": "to",
          "type": "address"
        },
        {
          "internalType": "uint256",
          "name": "tokenId",
          "type": "uint256"
        }
      ],
      "name": "safeTransferFrom",
      "outputs": [],
      "stateMutability": "nonpayable",
      "type": "function"
    },
    {
      "inputs": [
        {
          "internalType": "address",
          "name": "from",
          "type": "address"
        },
        {
          "internalType": "address",
          "name": "to",
          "type": "address"
        },
        {
          "internalType": "uint256",
          "name": "tokenId",
          "type": "uint256"
        },
        {
          "internalType": "bytes",
          "name": "_data",
          "type": "bytes"
        }
      ],
      "name": "safeTransferFrom",
      "outputs": [],
      "stateMutability": "nonpayable",
      "type": "function"
    },
    {
      "inputs": [
        {
          "internalType": "address",
          "name": "operator",
          "type": "address"
        },
        {
          "internalType": "bool",
          "name": "approved",
          "type": "bool"
        }
      ],
      "name": "setApprovalForAll",
      "outputs": [],
      "stateMutability": "nonpayable",
      "type": "function"
    },
    {
      "inputs": [
        {
          "internalType": "bytes4",
          "name": "interfaceId",
          "type": "bytes4"
        }
      ],
      "name": "supportsInterface",
      "outputs": [
        {
          "internalType": "bool",
          "name": "",
          "type": "bool"
        }
      ],
      "stateMutability": "view",
      "type": "function"
    },
    {
      "inputs": [],
      "name": "symbol",
      "outputs": [
        {
          "internalType": "string",
          "name": "",
          "type": "string"
        }
      ],
      "stateMutability": "view",
      "type": "function"
    },
    {
      "inputs": [
        {
          "internalType": "uint256",
          "name": "tokenId",
          "type": "uint256"
        }
      ],
      "name": "tokenURI",
      "outputs": [
        {
          "internalType": "string",
          "name": "",
          "type": "string"
        }
      ],
      "stateMutability": "view",
      "type": "function"
    },
    {
      "inputs": [
        {
          "internalType": "address",
          "name": "from",
          "type": "address"
        },
        {
          "internalType": "address",
          "name": "to",
          "type": "address"
        },
        {
          "internalType": "uint256",
          "name": "tokenId",
          "type": "uint256"
        }
      ],
      "name": "transferFrom",
      "outputs": [],
      "stateMutability": "nonpayable",
      "type": "function"
    },
    {
      "inputs": [
        {
          "internalType": "address",
          "name": "newOwner",
          "type": "address"
        }
      ],
      "name": "transferOwnership",
      "outputs": [],
      "stateMutability": "nonpayable",
      "type": "function"
    },
    {
      "inputs": [
        {
          "internalType": "uint256",
          "name": "newPrice",
          "type": "uint256"
        }
      ],
      "name": "newTokenPrice",
      "outputs": [],
      "stateMutability": "nonpayable",
      "type": "function"
    },
    {
      "inputs": [
        {
          "internalType": "uint256",
          "name": "newRebateToken",
          "type": "uint256"
        }
      ],
      "name": "newRebate",
      "outputs": [],
      "stateMutability": "nonpayable",
      "type": "function"
    },
    {
      "inputs": [
        {
          "internalType": "address",
          "name": "to",
          "type": "address"
        },
        {
          "internalType": "uint256",
          "name": "idToken",
          "type": "uint256"
        }
      ],
      "name": "mintToken",
      "outputs": [],
      "stateMutability": "nonpayable",
      "type": "function"
    },
    {
      "inputs": [
        {
          "internalType": "address",
          "name": "to",
          "type": "address"
        },
        {
          "internalType": "uint256",
          "name": "idToken",
          "type": "uint256"
        },
        {
          "internalType": "uint256",
          "name": "number",
          "type": "uint256"
        }
      ],
      "name": "numberTokens",
      "outputs": [],
      "stateMutability": "nonpayable",
      "type": "function"
    }
  ],
  "bytecode": "0x60a0604052600a600855600f6009553480156200001b57600080fd5b506040516200333b3803806200333b833981810160405281019062000041919062000324565b6040518060400160405280600481526020017f4c656e6f000000000000000000000000000000000000000000000000000000008152506040518060400160405280600381526020017f4c454e00000000000000000000000000000000000000000000000000000000008152508160009080519060200190620000c59291906200020a565b508060019080519060200190620000de9291906200020a565b50505062000101620000f56200013c60201b60201c565b6200014460201b60201c565b8073ffffffffffffffffffffffffffffffffffffffff1660808173ffffffffffffffffffffffffffffffffffffffff168152505050620003ba565b600033905090565b6000600660009054906101000a900473ffffffffffffffffffffffffffffffffffffffff16905081600660006101000a81548173ffffffffffffffffffffffffffffffffffffffff021916908373ffffffffffffffffffffffffffffffffffffffff1602179055508173ffffffffffffffffffffffffffffffffffffffff168173ffffffffffffffffffffffffffffffffffffffff167f8be0079c531659141344cd1fd0a4f28419497f9722a3daafe3b4186f6b6457e060405160405180910390a35050565b828054620002189062000385565b90600052602060002090601f0160209004810192826200023c576000855562000288565b82601f106200025757805160ff191683800117855562000288565b8280016001018555821562000288579182015b82811115620002875782518255916020019190600101906200026a565b5b5090506200029791906200029b565b5090565b5b80821115620002b65760008160009055506001016200029c565b5090565b600080fd5b600073ffffffffffffffffffffffffffffffffffffffff82169050919050565b6000620002ec82620002bf565b9050919050565b620002fe81620002df565b81146200030a57600080fd5b50565b6000815190506200031e81620002f3565b92915050565b6000602082840312156200033d576200033c620002ba565b5b60006200034d848285016200030d565b91505092915050565b7f4e487b7100000000000000000000000000000000000000000000000000000000600052602260045260246000fd5b600060028204905060018216806200039e57607f821691505b602082108103620003b457620003b362000356565b5b50919050565b608051612f5e620003dd600039600081816107ee0152610a220152612f5e6000f3fe608060405234801561001057600080fd5b50600436106101375760003560e01c8063715018a6116100b8578063a22cb4651161007c578063a22cb46514610326578063ae6cb1d014610342578063b88d4fde1461035e578063c87b56dd1461037a578063e985e9c5146103aa578063f2fde38b146103da57610137565b8063715018a6146102a857806379c65068146102b2578063825e2690146102ce5780638da5cb5b146102ea57806395d89b411461030857610137565b8063257e24c9116100ff578063257e24c9146101f25780633013ce291461020e57806342842e0e1461022c5780636352211e1461024857806370a082311461027857610137565b806301ffc9a71461013c57806306fdde031461016c578063081812fc1461018a578063095ea7b3146101ba57806323b872dd146101d6575b600080fd5b61015660048036038101906101519190611c53565b6103f6565b6040516101639190611c9b565b60405180910390f35b6101746104d8565b6040516101819190611d4f565b60405180910390f35b6101a4600480360381019061019f9190611da7565b61056a565b6040516101b19190611e15565b60405180910390f35b6101d460048036038101906101cf9190611e5c565b6105ef565b005b6101f060048036038101906101eb9190611e9c565b610706565b005b61020c60048036038101906102079190611da7565b610766565b005b6102166107ec565b6040516102239190611e15565b60405180910390f35b61024660048036038101906102419190611e9c565b610810565b005b610262600480360381019061025d9190611da7565b610830565b60405161026f9190611e15565b60405180910390f35b610292600480360381019061028d9190611eef565b6108e1565b60405161029f9190611f2b565b60405180910390f35b6102b0610998565b005b6102cc60048036038101906102c79190611e5c565b610a20565b005b6102e860048036038101906102e39190611da7565b610b29565b005b6102f2610baf565b6040516102ff9190611e15565b60405180910390f35b610310610bd9565b60405161031d9190611d4f565b60405180910390f35b610340600480360381019061033b9190611f72565b610c6b565b005b61035c60048036038101906103579190611fb2565b610c81565b005b6103786004803603810190610373919061213a565b610ce6565b005b610394600480360381019061038f9190611da7565b610d48565b6040516103a19190611d4f565b60405180910390f35b6103c460048036038101906103bf91906121bd565b610def565b6040516103d19190611c9b565b60405180910390f35b6103f460048036038101906103ef9190611eef565b610e83565b005b60007f80ac58cd000000000000000000000000000000000000000000000000000000007bffffffffffffffffffffffffffffffffffffffffffffffffffffffff1916827bffffffffffffffffffffffffffffffffffffffffffffffffffffffff191614806104c157507f5b5e139f000000000000000000000000000000000000000000000000000000007bffffffffffffffffffffffffffffffffffffffffffffffffffffffff1916827bffffffffffffffffffffffffffffffffffffffffffffffffffffffff1916145b806104d157506104d082610f7a565b5b9050919050565b6060600080546104e79061222c565b80601f01602080910402602001604051908101604052809291908181526020018280546105139061222c565b80156105605780601f1061053557610100808354040283529160200191610560565b820191906000526020600020905b81548152906001019060200180831161054357829003601f168201915b5050505050905090565b600061057582610fe4565b6105b4576040517f08c379a00000000000000000000000000000000000000000000000000000000081526004016105ab906122cf565b60405180910390fd5b6004600083815260200190815260200160002060009054906101000a900473ffffffffffffffffffffffffffffffffffffffff169050919050565b60006105fa82610830565b90508073ffffffffffffffffffffffffffffffffffffffff168373ffffffffffffffffffffffffffffffffffffffff160361066a576040517f08c379a000000000000000000000000000000000000000000000000000000000815260040161066190612361565b60405180910390fd5b8073ffffffffffffffffffffffffffffffffffffffff16610689611050565b73ffffffffffffffffffffffffffffffffffffffff1614806106b857506106b7816106b2611050565b610def565b5b6106f7576040517f08c379a00000000000000000000000000000000000000000000000000000000081526004016106ee906123f3565b60405180910390fd5b6107018383611058565b505050565b610717610711611050565b82611111565b610756576040517f08c379a000000000000000000000000000000000000000000000000000000000815260040161074d90612485565b60405180910390fd5b6107618383836111ef565b505050565b61076e611050565b73ffffffffffffffffffffffffffffffffffffffff1661078c610baf565b73ffffffffffffffffffffffffffffffffffffffff16146107e2576040517f08c379a00000000000000000000000000000000000000000000000000000000081526004016107d9906124f1565b60405180910390fd5b8060088190555050565b7f000000000000000000000000000000000000000000000000000000000000000081565b61082b83838360405180602001604052806000815250610ce6565b505050565b6000806002600084815260200190815260200160002060009054906101000a900473ffffffffffffffffffffffffffffffffffffffff169050600073ffffffffffffffffffffffffffffffffffffffff168173ffffffffffffffffffffffffffffffffffffffff16036108d8576040517f08c379a00000000000000000000000000000000000000000000000000000000081526004016108cf90612583565b60405180910390fd5b80915050919050565b60008073ffffffffffffffffffffffffffffffffffffffff168273ffffffffffffffffffffffffffffffffffffffff1603610951576040517f08c379a000000000000000000000000000000000000000000000000000000000815260040161094890612615565b60405180910390fd5b600360008373ffffffffffffffffffffffffffffffffffffffff1673ffffffffffffffffffffffffffffffffffffffff168152602001908152602001600020549050919050565b6109a0611050565b73ffffffffffffffffffffffffffffffffffffffff166109be610baf565b73ffffffffffffffffffffffffffffffffffffffff1614610a14576040517f08c379a0000000000000000000000000000000000000000000000000000000008152600401610a0b906124f1565b60405180910390fd5b610a1e6000611455565b565b7f000000000000000000000000000000000000000000000000000000000000000073ffffffffffffffffffffffffffffffffffffffff166323b872dd33306008546040518463ffffffff1660e01b8152600401610a7f93929190612635565b6020604051808303816000875af1158015610a9e573d6000803e3d6000fd5b505050506040513d601f19601f82011682018060405250810190610ac29190612681565b610b01576040517f08c379a0000000000000000000000000000000000000000000000000000000008152600401610af8906126fa565b60405180910390fd5b610b0b828261151b565b600160076000828254610b1e9190612749565b925050819055505050565b610b31611050565b73ffffffffffffffffffffffffffffffffffffffff16610b4f610baf565b73ffffffffffffffffffffffffffffffffffffffff1614610ba5576040517f08c379a0000000000000000000000000000000000000000000000000000000008152600401610b9c906124f1565b60405180910390fd5b8060098190555050565b6000600660009054906101000a900473ffffffffffffffffffffffffffffffffffffffff16905090565b606060018054610be89061222c565b80601f0160208091040260200160405190810160405280929190818152602001828054610c149061222c565b8015610c615780601f10610c3657610100808354040283529160200191610c61565b820191906000526020600020905b815481529060010190602001808311610c4457829003601f168201915b5050505050905090565b610c7d610c76611050565b83836116f4565b5050565b6064600954600854610c93919061279f565b610c9d9190612828565b600854610caa9190612859565b60088190555060005b80821015610cd857610cc58484610a20565b8080610cd09061288d565b915050610cb3565b50600a600881905550505050565b610cf7610cf1611050565b83611111565b610d36576040517f08c379a0000000000000000000000000000000000000000000000000000000008152600401610d2d90612485565b60405180910390fd5b610d4284848484611860565b50505050565b6060610d5382610fe4565b610d92576040517f08c379a0000000000000000000000000000000000000000000000000000000008152600401610d8990612947565b60405180910390fd5b6000610d9c6118bc565b90506000815111610dbc5760405180602001604052806000815250610de7565b80610dc6846118d3565b604051602001610dd79291906129a3565b6040516020818303038152906040525b915050919050565b6000600560008473ffffffffffffffffffffffffffffffffffffffff1673ffffffffffffffffffffffffffffffffffffffff16815260200190815260200160002060008373ffffffffffffffffffffffffffffffffffffffff1673ffffffffffffffffffffffffffffffffffffffff16815260200190815260200160002060009054906101000a900460ff16905092915050565b610e8b611050565b73ffffffffffffffffffffffffffffffffffffffff16610ea9610baf565b73ffffffffffffffffffffffffffffffffffffffff1614610eff576040517f08c379a0000000000000000000000000000000000000000000000000000000008152600401610ef6906124f1565b60405180910390fd5b600073ffffffffffffffffffffffffffffffffffffffff168173ffffffffffffffffffffffffffffffffffffffff1603610f6e576040517f08c379a0000000000000000000000000000000000000000000000000000000008152600401610f6590612a39565b60405180910390fd5b610f7781611455565b50565b60007f01ffc9a7000000000000000000000000000000000000000000000000000000007bffffffffffffffffffffffffffffffffffffffffffffffffffffffff1916827bffffffffffffffffffffffffffffffffffffffffffffffffffffffff1916149050919050565b60008073ffffffffffffffffffffffffffffffffffffffff166002600084815260200190815260200160002060009054906101000a900473ffffffffffffffffffffffffffffffffffffffff1673ffffffffffffffffffffffffffffffffffffffff1614159050919050565b600033905090565b816004600083815260200190815260200160002060006101000a81548173ffffffffffffffffffffffffffffffffffffffff021916908373ffffffffffffffffffffffffffffffffffffffff160217905550808273ffffffffffffffffffffffffffffffffffffffff166110cb83610830565b73ffffffffffffffffffffffffffffffffffffffff167f8c5be1e5ebec7d5bd14f71427d1e84f3dd0314c0f7b2291e5b200ac8c7c3b92560405160405180910390a45050565b600061111c82610fe4565b61115b576040517f08c379a000000000000000000000000000000000000000000000000000000000815260040161115290612acb565b60405180910390fd5b600061116683610830565b90508073ffffffffffffffffffffffffffffffffffffffff168473ffffffffffffffffffffffffffffffffffffffff1614806111a857506111a78185610def565b5b806111e657508373ffffffffffffffffffffffffffffffffffffffff166111ce8461056a565b73ffffffffffffffffffffffffffffffffffffffff16145b91505092915050565b8273ffffffffffffffffffffffffffffffffffffffff1661120f82610830565b73ffffffffffffffffffffffffffffffffffffffff1614611265576040517f08c379a000000000000000000000000000000000000000000000000000000000815260040161125c90612b5d565b60405180910390fd5b600073ffffffffffffffffffffffffffffffffffffffff168273ffffffffffffffffffffffffffffffffffffffff16036112d4576040517f08c379a00000000000000000000000000000000000000000000000000000000081526004016112cb90612bef565b60405180910390fd5b6112df838383611a33565b6112ea600082611058565b6001600360008573ffffffffffffffffffffffffffffffffffffffff1673ffffffffffffffffffffffffffffffffffffffff168152602001908152602001600020600082825461133a9190612859565b925050819055506001600360008473ffffffffffffffffffffffffffffffffffffffff1673ffffffffffffffffffffffffffffffffffffffff16815260200190815260200160002060008282546113919190612749565b92505081905550816002600083815260200190815260200160002060006101000a81548173ffffffffffffffffffffffffffffffffffffffff021916908373ffffffffffffffffffffffffffffffffffffffff160217905550808273ffffffffffffffffffffffffffffffffffffffff168473ffffffffffffffffffffffffffffffffffffffff167fddf252ad1be2c89b69c2b068fc378daa952ba7f163c4a11628f55a4df523b3ef60405160405180910390a4611450838383611a38565b505050565b6000600660009054906101000a900473ffffffffffffffffffffffffffffffffffffffff16905081600660006101000a81548173ffffffffffffffffffffffffffffffffffffffff021916908373ffffffffffffffffffffffffffffffffffffffff1602179055508173ffffffffffffffffffffffffffffffffffffffff168173ffffffffffffffffffffffffffffffffffffffff167f8be0079c531659141344cd1fd0a4f28419497f9722a3daafe3b4186f6b6457e060405160405180910390a35050565b600073ffffffffffffffffffffffffffffffffffffffff168273ffffffffffffffffffffffffffffffffffffffff160361158a576040517f08c379a000000000000000000000000000000000000000000000000000000000815260040161158190612c5b565b60405180910390fd5b61159381610fe4565b156115d3576040517f08c379a00000000000000000000000000000000000000000000000000000000081526004016115ca90612cc7565b60405180910390fd5b6115df60008383611a33565b6001600360008473ffffffffffffffffffffffffffffffffffffffff1673ffffffffffffffffffffffffffffffffffffffff168152602001908152602001600020600082825461162f9190612749565b92505081905550816002600083815260200190815260200160002060006101000a81548173ffffffffffffffffffffffffffffffffffffffff021916908373ffffffffffffffffffffffffffffffffffffffff160217905550808273ffffffffffffffffffffffffffffffffffffffff16600073ffffffffffffffffffffffffffffffffffffffff167fddf252ad1be2c89b69c2b068fc378daa952ba7f163c4a11628f55a4df523b3ef60405160405180910390a46116f060008383611a38565b5050565b8173ffffffffffffffffffffffffffffffffffffffff168373ffffffffffffffffffffffffffffffffffffffff1603611762576040517f08c379a000000000000000000000000000000000000000000000000000000000815260040161175990612d33565b60405180910390fd5b80600560008573ffffffffffffffffffffffffffffffffffffffff1673ffffffffffffffffffffffffffffffffffffffff16815260200190815260200160002060008473ffffffffffffffffffffffffffffffffffffffff1673ffffffffffffffffffffffffffffffffffffffff16815260200190815260200160002060006101000a81548160ff0219169083151502179055508173ffffffffffffffffffffffffffffffffffffffff168373ffffffffffffffffffffffffffffffffffffffff167f17307eab39ab6107e8899845ad3d59bd9653f200f220920489ca2b5937696c31836040516118539190611c9b565b60405180910390a3505050565b61186b8484846111ef565b61187784848484611a3d565b6118b6576040517f08c379a00000000000000000000000000000000000000000000000000000000081526004016118ad90612dc5565b60405180910390fd5b50505050565b606060405180602001604052806000815250905090565b60606000820361191a576040518060400160405280600181526020017f30000000000000000000000000000000000000000000000000000000000000008152509050611a2e565b600082905060005b6000821461194c5780806119359061288d565b915050600a826119459190612828565b9150611922565b60008167ffffffffffffffff8111156119685761196761200f565b5b6040519080825280601f01601f19166020018201604052801561199a5781602001600182028036833780820191505090505b5090505b60008514611a27576001826119b39190612859565b9150600a856119c29190612de5565b60306119ce9190612749565b60f81b8183815181106119e4576119e3612e16565b5b60200101907effffffffffffffffffffffffffffffffffffffffffffffffffffffffffffff1916908160001a905350600a85611a209190612828565b945061199e565b8093505050505b919050565b505050565b505050565b6000611a5e8473ffffffffffffffffffffffffffffffffffffffff16611bc4565b15611bb7578373ffffffffffffffffffffffffffffffffffffffff1663150b7a02611a87611050565b8786866040518563ffffffff1660e01b8152600401611aa99493929190612e9a565b6020604051808303816000875af1925050508015611ae557506040513d601f19601f82011682018060405250810190611ae29190612efb565b60015b611b67573d8060008114611b15576040519150601f19603f3d011682016040523d82523d6000602084013e611b1a565b606091505b506000815103611b5f576040517f08c379a0000000000000000000000000000000000000000000000000000000008152600401611b5690612dc5565b60405180910390fd5b805181602001fd5b63150b7a0260e01b7bffffffffffffffffffffffffffffffffffffffffffffffffffffffff1916817bffffffffffffffffffffffffffffffffffffffffffffffffffffffff191614915050611bbc565b600190505b949350505050565b6000808273ffffffffffffffffffffffffffffffffffffffff163b119050919050565b6000604051905090565b600080fd5b600080fd5b60007fffffffff0000000000000000000000000000000000000000000000000000000082169050919050565b611c3081611bfb565b8114611c3b57600080fd5b50565b600081359050611c4d81611c27565b92915050565b600060208284031215611c6957611c68611bf1565b5b6000611c7784828501611c3e565b91505092915050565b60008115159050919050565b611c9581611c80565b82525050565b6000602082019050611cb06000830184611c8c565b92915050565b600081519050919050565b600082825260208201905092915050565b60005b83811015611cf0578082015181840152602081019050611cd5565b83811115611cff576000848401525b50505050565b6000601f19601f8301169050919050565b6000611d2182611cb6565b611d2b8185611cc1565b9350611d3b818560208601611cd2565b611d4481611d05565b840191505092915050565b60006020820190508181036000830152611d698184611d16565b905092915050565b6000819050919050565b611d8481611d71565b8114611d8f57600080fd5b50565b600081359050611da181611d7b565b92915050565b600060208284031215611dbd57611dbc611bf1565b5b6000611dcb84828501611d92565b91505092915050565b600073ffffffffffffffffffffffffffffffffffffffff82169050919050565b6000611dff82611dd4565b9050919050565b611e0f81611df4565b82525050565b6000602082019050611e2a6000830184611e06565b92915050565b611e3981611df4565b8114611e4457600080fd5b50565b600081359050611e5681611e30565b92915050565b60008060408385031215611e7357611e72611bf1565b5b6000611e8185828601611e47565b9250506020611e9285828601611d92565b9150509250929050565b600080600060608486031215611eb557611eb4611bf1565b5b6000611ec386828701611e47565b9350506020611ed486828701611e47565b9250506040611ee586828701611d92565b9150509250925092565b600060208284031215611f0557611f04611bf1565b5b6000611f1384828501611e47565b91505092915050565b611f2581611d71565b82525050565b6000602082019050611f406000830184611f1c565b92915050565b611f4f81611c80565b8114611f5a57600080fd5b50565b600081359050611f6c81611f46565b92915050565b60008060408385031215611f8957611f88611bf1565b5b6000611f9785828601611e47565b9250506020611fa885828601611f5d565b9150509250929050565b600080600060608486031215611fcb57611fca611bf1565b5b6000611fd986828701611e47565b9350506020611fea86828701611d92565b9250506040611ffb86828701611d92565b9150509250925092565b600080fd5b600080fd5b7f4e487b7100000000000000000000000000000000000000000000000000000000600052604160045260246000fd5b61204782611d05565b810181811067ffffffffffffffff821117156120665761206561200f565b5b80604052505050565b6000612079611be7565b9050612085828261203e565b919050565b600067ffffffffffffffff8211156120a5576120a461200f565b5b6120ae82611d05565b9050602081019050919050565b82818337600083830152505050565b60006120dd6120d88461208a565b61206f565b9050828152602081018484840111156120f9576120f861200a565b5b6121048482856120bb565b509392505050565b600082601f83011261212157612120612005565b5b81356121318482602086016120ca565b91505092915050565b6000806000806080858703121561215457612153611bf1565b5b600061216287828801611e47565b945050602061217387828801611e47565b935050604061218487828801611d92565b925050606085013567ffffffffffffffff8111156121a5576121a4611bf6565b5b6121b18782880161210c565b91505092959194509250565b600080604083850312156121d4576121d3611bf1565b5b60006121e285828601611e47565b92505060206121f385828601611e47565b9150509250929050565b7f4e487b7100000000000000000000000000000000000000000000000000000000600052602260045260246000fd5b6000600282049050600182168061224457607f821691505b602082108103612257576122566121fd565b5b50919050565b7f4552433732313a20617070726f76656420717565727920666f72206e6f6e657860008201527f697374656e7420746f6b656e0000000000000000000000000000000000000000602082015250565b60006122b9602c83611cc1565b91506122c48261225d565b604082019050919050565b600060208201905081810360008301526122e8816122ac565b9050919050565b7f4552433732313a20617070726f76616c20746f2063757272656e74206f776e6560008201527f7200000000000000000000000000000000000000000000000000000000000000602082015250565b600061234b602183611cc1565b9150612356826122ef565b604082019050919050565b6000602082019050818103600083015261237a8161233e565b9050919050565b7f4552433732313a20617070726f76652063616c6c6572206973206e6f74206f7760008201527f6e6572206e6f7220617070726f76656420666f7220616c6c0000000000000000602082015250565b60006123dd603883611cc1565b91506123e882612381565b604082019050919050565b6000602082019050818103600083015261240c816123d0565b9050919050565b7f4552433732313a207472616e736665722063616c6c6572206973206e6f74206f60008201527f776e6572206e6f7220617070726f766564000000000000000000000000000000602082015250565b600061246f603183611cc1565b915061247a82612413565b604082019050919050565b6000602082019050818103600083015261249e81612462565b9050919050565b7f4f776e61626c653a2063616c6c6572206973206e6f7420746865206f776e6572600082015250565b60006124db602083611cc1565b91506124e6826124a5565b602082019050919050565b6000602082019050818103600083015261250a816124ce565b9050919050565b7f4552433732313a206f776e657220717565727920666f72206e6f6e657869737460008201527f656e7420746f6b656e0000000000000000000000000000000000000000000000602082015250565b600061256d602983611cc1565b915061257882612511565b604082019050919050565b6000602082019050818103600083015261259c81612560565b9050919050565b7f4552433732313a2062616c616e636520717565727920666f7220746865207a6560008201527f726f206164647265737300000000000000000000000000000000000000000000602082015250565b60006125ff602a83611cc1565b915061260a826125a3565b604082019050919050565b6000602082019050818103600083015261262e816125f2565b9050919050565b600060608201905061264a6000830186611e06565b6126576020830185611e06565b6126646040830184611f1c565b949350505050565b60008151905061267b81611f46565b92915050565b60006020828403121561269757612696611bf1565b5b60006126a58482850161266c565b91505092915050565b7f4661696c207472616e7366657200000000000000000000000000000000000000600082015250565b60006126e4600d83611cc1565b91506126ef826126ae565b602082019050919050565b60006020820190508181036000830152612713816126d7565b9050919050565b7f4e487b7100000000000000000000000000000000000000000000000000000000600052601160045260246000fd5b600061275482611d71565b915061275f83611d71565b9250827fffffffffffffffffffffffffffffffffffffffffffffffffffffffffffffffff038211156127945761279361271a565b5b828201905092915050565b60006127aa82611d71565b91506127b583611d71565b9250817fffffffffffffffffffffffffffffffffffffffffffffffffffffffffffffffff04831182151516156127ee576127ed61271a565b5b828202905092915050565b7f4e487b7100000000000000000000000000000000000000000000000000000000600052601260045260246000fd5b600061283382611d71565b915061283e83611d71565b92508261284e5761284d6127f9565b5b828204905092915050565b600061286482611d71565b915061286f83611d71565b9250828210156128825761288161271a565b5b828203905092915050565b600061289882611d71565b91507fffffffffffffffffffffffffffffffffffffffffffffffffffffffffffffffff82036128ca576128c961271a565b5b600182019050919050565b7f4552433732314d657461646174613a2055524920717565727920666f72206e6f60008201527f6e6578697374656e7420746f6b656e0000000000000000000000000000000000602082015250565b6000612931602f83611cc1565b915061293c826128d5565b604082019050919050565b6000602082019050818103600083015261296081612924565b9050919050565b600081905092915050565b600061297d82611cb6565b6129878185612967565b9350612997818560208601611cd2565b80840191505092915050565b60006129af8285612972565b91506129bb8284612972565b91508190509392505050565b7f4f776e61626c653a206e6577206f776e657220697320746865207a65726f206160008201527f6464726573730000000000000000000000000000000000000000000000000000602082015250565b6000612a23602683611cc1565b9150612a2e826129c7565b604082019050919050565b60006020820190508181036000830152612a5281612a16565b9050919050565b7f4552433732313a206f70657261746f7220717565727920666f72206e6f6e657860008201527f697374656e7420746f6b656e0000000000000000000000000000000000000000602082015250565b6000612ab5602c83611cc1565b9150612ac082612a59565b604082019050919050565b60006020820190508181036000830152612ae481612aa8565b9050919050565b7f4552433732313a207472616e736665722066726f6d20696e636f72726563742060008201527f6f776e6572000000000000000000000000000000000000000000000000000000602082015250565b6000612b47602583611cc1565b9150612b5282612aeb565b604082019050919050565b60006020820190508181036000830152612b7681612b3a565b9050919050565b7f4552433732313a207472616e7366657220746f20746865207a65726f2061646460008201527f7265737300000000000000000000000000000000000000000000000000000000602082015250565b6000612bd9602483611cc1565b9150612be482612b7d565b604082019050919050565b60006020820190508181036000830152612c0881612bcc565b9050919050565b7f4552433732313a206d696e7420746f20746865207a65726f2061646472657373600082015250565b6000612c45602083611cc1565b9150612c5082612c0f565b602082019050919050565b60006020820190508181036000830152612c7481612c38565b9050919050565b7f4552433732313a20746f6b656e20616c7265616479206d696e74656400000000600082015250565b6000612cb1601c83611cc1565b9150612cbc82612c7b565b602082019050919050565b60006020820190508181036000830152612ce081612ca4565b9050919050565b7f4552433732313a20617070726f766520746f2063616c6c657200000000000000600082015250565b6000612d1d601983611cc1565b9150612d2882612ce7565b602082019050919050565b60006020820190508181036000830152612d4c81612d10565b9050919050565b7f4552433732313a207472616e7366657220746f206e6f6e20455243373231526560008201527f63656976657220696d706c656d656e7465720000000000000000000000000000602082015250565b6000612daf603283611cc1565b9150612dba82612d53565b604082019050919050565b60006020820190508181036000830152612dde81612da2565b9050919050565b6000612df082611d71565b9150612dfb83611d71565b925082612e0b57612e0a6127f9565b5b828206905092915050565b7f4e487b7100000000000000000000000000000000000000000000000000000000600052603260045260246000fd5b600081519050919050565b600082825260208201905092915050565b6000612e6c82612e45565b612e768185612e50565b9350612e86818560208601611cd2565b612e8f81611d05565b840191505092915050565b6000608082019050612eaf6000830187611e06565b612ebc6020830186611e06565b612ec96040830185611f1c565b8181036060830152612edb8184612e61565b905095945050505050565b600081519050612ef581611c27565b92915050565b600060208284031215612f1157612f10611bf1565b5b6000612f1f84828501612ee6565b9150509291505056fea2646970667358221220da0c9913910df433f21b602906d09e0dfada7636656e745dc2a7ae5da8cbdc9f64736f6c634300080e0033",
  "immutableReferences": {
    "2578": [
      {
        "length": 32,
        "start": 2030
      },
      {
        "length": 32,
        "start": 2594
      }
    ]
  },
  "source": "// SPDX-License-Identifier: MIT\r\npragma solidity ^0.8.14;\r\n\r\nimport \"@openzeppelin/contracts/token/ERC721/ERC721.sol\";\r\nimport \"@openzeppelin/contracts/token/ERC20/IERC20.sol\";\r\nimport \"@openzeppelin/contracts/access/Ownable.sol\";\r\n\r\ncontract Leno is ERC721, Ownable {\r\n    uint256 count;\r\n    address public immutable paymentToken;\r\n    uint256 tokenPrice = 10;\r\n    uint256 rebate = 15;\r\n\r\n\r\n    constructor(address _paymentToken) ERC721(\"Leno\", \"LEN\"){\r\n        paymentToken = _paymentToken;\r\n    }\r\n\r\n    function newTokenPrice(uint256 newPrice) public onlyOwner{\r\n        tokenPrice=newPrice;\r\n    }\r\n\r\n    function newRebate(uint256 newRebateToken) public onlyOwner{\r\n        rebate=newRebateToken;\r\n    }\r\n\r\n    function mintToken(address to, uint256 idToken) public {\r\n        require(IERC20(paymentToken).transferFrom(msg.sender, address(this), tokenPrice),\"Fail transfer\");\r\n        _mint(to, idToken);\r\n        count += 1;\r\n    }\r\n\r\n    function numberTokens (address to, uint256 idToken, uint256 number) public {\r\n        tokenPrice = tokenPrice-((tokenPrice*rebate)/100);\r\n        for(uint256 i=0; number < i; i++){\r\n            mintToken(to, idToken);\r\n        }\r\n        tokenPrice = 10;\r\n    }    \r\n    \r\n}",
  "sourcePath": "C:\\Users\\itrmi\\Documents\\WOLF\\Truffle\\contracts\\Leno.sol",
  "compiler": {
    "name": "solc",
    "version": "0.8.14+commit.80d49f37.Emscripten.clang"
  },
  "schemaVersion": "3.4.7",
  "updatedAt": "2022-06-14T05:28:00.262Z",
  "devdoc": {
    "kind": "dev",
    "methods": {
      "approve(address,uint256)": {
        "details": "See {IERC721-approve}."
      },
      "balanceOf(address)": {
        "details": "See {IERC721-balanceOf}."
      },
      "getApproved(uint256)": {
        "details": "See {IERC721-getApproved}."
      },
      "isApprovedForAll(address,address)": {
        "details": "See {IERC721-isApprovedForAll}."
      },
      "name()": {
        "details": "See {IERC721Metadata-name}."
      },
      "owner()": {
        "details": "Returns the address of the current owner."
      },
      "ownerOf(uint256)": {
        "details": "See {IERC721-ownerOf}."
      },
      "renounceOwnership()": {
        "details": "Leaves the contract without owner. It will not be possible to call `onlyOwner` functions anymore. Can only be called by the current owner. NOTE: Renouncing ownership will leave the contract without an owner, thereby removing any functionality that is only available to the owner."
      },
      "safeTransferFrom(address,address,uint256)": {
        "details": "See {IERC721-safeTransferFrom}."
      },
      "safeTransferFrom(address,address,uint256,bytes)": {
        "details": "See {IERC721-safeTransferFrom}."
      },
      "setApprovalForAll(address,bool)": {
        "details": "See {IERC721-setApprovalForAll}."
      },
      "supportsInterface(bytes4)": {
        "details": "See {IERC165-supportsInterface}."
      },
      "symbol()": {
        "details": "See {IERC721Metadata-symbol}."
      },
      "tokenURI(uint256)": {
        "details": "See {IERC721Metadata-tokenURI}."
      },
      "transferFrom(address,address,uint256)": {
        "details": "See {IERC721-transferFrom}."
      },
      "transferOwnership(address)": {
        "details": "Transfers ownership of the contract to a new account (`newOwner`). Can only be called by the current owner."
      }
    },
    "version": 1
  },
  "userdoc": {
    "kind": "user",
    "methods": {},
    "version": 1
  }
}